:020000040800F2
:100000001010002035020008CB3B0008B93800086A
:10001000C93B0008031E0008F14200080000000070
:10002000000000000000000000000000CF3B0008BE
:100030005F1E000800000000CD3B0008D13B000817
:100040004F0200084F0200084F0200084F0200084C
:100050004F0200084F0200084F0200084F0200083C
:100060004F0200084F0200084F020008051E00085A
:10007000111E00084F0200081D1E0008291E00085E
:100080004F0200084F0200084F0200084F0200080C
:100090004F0200084F0200084F020008611E0008CE
:1000A0004F020008353C00084F0200084F020008CC
:1000B0004F0200084F0200084F0200084F020008DC
:1000C0004F0200084F0200084F0200084F020008CC
:1000D0004F020008D94200084F020008E54200081C
:1000E0004F0200084F0200084F02000800F002F81B
:1000F00000F090F80AA090E8000C82448344AAF132
:100100000107DA4501D100F085F8AFF2090EBAE82F
:100110000F0013F0010F18BFFB1A43F0010318473B
:100120001C6E00003C6E0000103A24BF78C878C1F5
:10013000FAD8520724BF30C830C144BF04680C60ED
:10014000704700000023002400250026103A28BF35
:1001500078C1FBD8520728BF30C148BF0B60704739
:100160006E2900F0B982702900F00384662906F038
:100170009B84652906F09884672906F09584612997
:1001800006F0948403681B0A28BF41F080016929A6
:1001900000F06682642900F06382752900F06082B5
:1001A0006F2900F09083782900F0CF83E92900F0CF
:1001B0002B83E42900F02883F52900F02583EF291B
:1001C00000F08D83F82900F0CE830368DB0928BF97
:1001D00041F08001632901F0D180732901F0D680BC
:1001E000E32901F0E180F32901F0E6800020704767
:1001F0001FB501F033F904000020002106F03EFC99
:10020000401C60600020002106F022FCE0601FBD61
:1002100010B510BD01F0F4F81146FFF7E9FF04F046
:1002200029FF01F0D1F903B4FFF7F2FF03BC01F09D
:1002300019FA00000948804709480047FEE7FEE731
:10024000FEE7FEE7FEE7FEE7FEE7FEE7FEE7FEE786
:1002500004480549054A064B70470000333C000836
:10026000ED000008100A002010100020100C0020E3
:10027000100C002053EA020C00F069802DE9F04BCD
:100280004FF00006002B1FBFB3FA83F503FA05F405
:1002900024FA05F65E4012BF1643B2FA82F502FA5E
:1002A00005F4C5F120051EBF22FA05FC44EA0C0442
:1002B000203556EA044C4FEA144418BF641C4FF032
:1002C00000084FF00009904271EB030C39D300296C
:1002D00019BFB1FA81F701FA07F6B0FA80F700FA10
:1002E00007F6C7F120071EBF20FA07FC46EA0C06F6
:1002F0002037B6FBF4FCA7EB0507103F07F01F0BF8
:10030000CBF120060CFA0BFB2CFA06F644BFB346E1
:100310000026202FA4BF5E464FF0000B5BEA060CC0
:1003200008BF4FF0010B19EB0B09ABFB027C48EB4C
:100330000608C01B06FB02CC0BFB03CC71EB0C01C7
:10034000C1E70B46024641464846BDE8F08B13B56F
:100350004FF000004FF00001AFF30080BDE81C40FB
:100360007047B2F120030AD5C2F1200320FA02F04F
:1003700001FA03F321FA02F140EA0300704721FA7F
:1003800003F04FF00001704710B54C1084EA53049D
:1003900004D54042C1F1000138BF491E1B4204D5BB
:1003A0005242C3F1000338BF5B1EFFF763FF14F036
:1003B000804F04D04042C1F1000138BF491E14F003
:1003C000004F04D05242C3F1000338BF5B1E10BD82
:1003D0007CB51D4616460C00009001D02044401EFE
:1003E000074B7B442A4669460190304600F08DF960
:1003F00005461CB10020694600F09AF928467CBDEC
:1004000055030000032A40F2308010F0030C00F086
:10041000158011F8013BBCF1020F624498BF11F83E
:1004200001CB00F8013B38BF11F8013BA2F10402F7
:1004300098BF00F801CB38BF00F8013B11F003036F
:1004400000F02580083AC0F0088051F8043B083AD3
:1004500051F804CBA0E80810F5E7121D5CBF51F875
:10046000043B40F8043BAFF30080D20724BF11F8EF
:10047000013B11F801CB48BF11F8012B24BF00F854
:10048000013B00F801CB48BF00F8012B704710B5C5
:10049000203AC0F00B80B1E81850203AA0E818507C
:1004A000B1E81850A0E81850BFF4F5AF5FEA027C3D
:1004B00024BFB1E81850A0E8185044BF18C918C0AC
:1004C000BDE810405FEA827C24BF51F8043B40F84D
:1004D000043B08BF7047D20728BF31F8023B48BF32
:1004E00011F8012B28BF20F8023B48BF00F8012B70
:1004F000704702F0FF0343EA032242EA024200F09F
:1005000002B84FF000020429C0F0128010F0030C72
:1005100000F01B80CCF1040CBCF1020F18BF00F8F6
:10052000012BA8BF20F8022BA1EB0C0100F00DB8A5
:100530005FEAC17C24BF00F8012B00F8012B48BF03
:1005400000F8012B70474FF0000200B513469446A7
:100550009646203922BFA0E80C50A0E80C50B1F11B
:100560002001BFF4F7AF090728BFA0E80C5048BF2F
:100570000CC05DF804EB890028BF40F8042B08BFCD
:10058000704748BF20F8022B11F0804F18BF00F8C9
:10059000012B704770477047704770B504468569F6
:1005A0000068C10601D5302600E02026C00707D02C
:1005B00070BDD4E9012130469047206A401C20627A
:1005C0006D1EF6D570BD70B5044685690078C0070C
:1005D00007D170BDD4E9012120209047206A401C3A
:1005E00020626D1EF6D570BD09684A0501D540B27E
:1005F0007047C905FCD500B2704709684A0501D5A6
:10060000C0B27047C905FCD580B2704770B50C46C2
:100610000546012A05D02878800600D5EA6900231E
:1006200002E0012305E05B1C934202D2E05C00285B
:10063000F9D1A869E618C01AA861286A1844286286
:100640002846FFF7AAFF04E0D5E9012114F8010BC1
:100650009047B442F8D32846FFF7B5FF70BD0000BD
:100660002DE9F0410646002410687529314616A58B
:1006700010D0FFF7B9FF002802DA404213A507E0C7
:1006800031688A0701D512A502E0490704D511A5F2
:10069000012401E0FFF7B1FF00210A2206F124073F
:1006A00009E0B0FBF2FCB0FBF2F302FB1C003030BF
:1006B00078541846491C0028F3D123462A46304670
:1006C000BDE8F04100F069BA000000002D00000014
:1006D0002B0000002000000011680268006A53052A
:1006E00001D508700AE0D30501D5088006E013069D
:1006F00003D5C217C1E9000200E00860012070477D
:1007000001694A1C02610878704700B58FB0CDE9D5
:1007100001310021059105497944CDE903101146C5
:10072000684600F031F90FB000BD0000E5FFFFFFA3
:100730000A6802F8010B0A607047D1E900239A4267
:1007400002D2531C0B601070704700002DE9FF5F50
:1007500015468A460446DFF8AC80F8440027D8E9FD
:1007600000103E46CDE9001010E03AF816106A4637
:1007700002A800F025FE411C07D02178890603D588
:10078000E269391891420DD80744761C207880061A
:1007900002D5E069B84205DDAE42E6DB3AF8160064
:1007A0000028E2D1A069C01BA0612046FFF7F5FE3A
:1007B000D8E90010CDE90010002017E03AF8181031
:1007C0006A4602A800F0FCFDB0F1FF3F81460BD065
:1007D00000250DF1080B05E0D4E901211BF8050007
:1007E00090476D1C4D45F7D308F10100B04280469B
:1007F000E4DB206A384420622046FFF7E4FEBDE8CF
:10080000FF9F0000E26600002DE9F0418046D21D06
:1008100022F007020025D2E90002F52915A614D01E
:10082000011E72F1000106DA0023D0EB030063EB36
:10083000020211A608E0D8F800108B0701D50FA618
:1008400002E0490701D50EA601251146002408F152
:10085000240704E000F05CF930323A55641C50EA99
:100860000102F7D12B46324621464046BDE8F04111
:1008700000F093B9000000002D0000002B000000E4
:100880002000000030B4002100F1240408E002F050
:100890000705D208303542EA4372DB086554491C2B
:1008A00052EA0305F3D10468002310A2250707D5F7
:1008B000A40600D421B1C46901230DA2641EC46141
:1008C00030BC00F06AB910B5044621461068FFF745
:1008D00094FE02462046BDE810400023D2E7D21D18
:1008E00022F00701D1E90023CCE70000000000005E
:1008F00030000000F0B40D460188090502D5214CF6
:100900007C4402E01F4C7C440E34002100F124069C
:1009100008E002F00F071209E75D42EA03721B09C3
:100920007754491C52EA0307F3D1027800231207D7
:1009300004D5702D06D009B1022311342246F0BC33
:1009400000F02BB901231034F8E770B504460D46CA
:1009500021461068FFF751FE024629462046BDE8B1
:1009600070400023C6E7D21D22F00703D3E900231D
:10097000C0E70368126843F0200303600823C361E3
:100980000023B7E7446500002DE9F05F894604467F
:100990004FF0000ADFF874B1FB44C0F820A02046F5
:1009A000E1688847002874D0252806D0D4E90121C1
:1009B0009047206A401C2062F1E700265F462046EF
:1009C000E16888472028054607DB312D05D27819D4
:1009D00010F8200C08B10643F1E7B00701D526F066
:1009E0000406C4F81CA00027C4F818A02A2D09D0BA
:1009F000284603F0A2FC38B304EB8708303DC8F862
:100A0000185019E059F8041B204604EB8702916145
:100A1000E1688847012F054618D1E069002820DAEF
:100A200026F020061DE0D8F8180000EB800005EB4A
:100A300040003038C8F818002046E168884705466D
:100A400003F07BFC0028EED1012F0AD02E2D08D117
:100A50002046E16888477F1C0546022F46F02006A5
:100A6000C4DBA069002803DA404246F00106A06119
:100A7000F00701D026F010066C2D0BD0682D09D0A0
:100A80004C2D39D06A2D35D0742D35D07A2D33D0F8
:100A900016E038E0E1682F4620468847B842054610
:100AA00009D16C2F26D04FF48060E16806432046C0
:100AB0008847054604E06C2F1AD04FF48070064337
:100AC0000DB3A5F14100192802D8203546F400667F
:100AD0004A462946204626604E46FFF741FB80B134
:100AE00001280BD0F61D26F0070000F1080956E793
:100AF0004020E4E78020D8E70020D6E706F104098B
:100B00004DE7284652E7206ABDE8F09FD464000014
:100B100030B5B0F10A024FEA900E71F100034EEACF
:100B2000817EB0EB0E0061EB91014FEA101E4EEAA0
:100B3000017E10EB0E0041EB11114FEA102E4EEA30
:100B4000016E10EB0E0041EB11214FEA104E4EEA00
:100B5000014E10EB0E0041EB1141401841F1000134
:100B60004FEAD00040EA41704FEAD10110EB800516
:100B70004FEA810444EA907444EB01046D1944EB9C
:100B80000404521BA3414FF0000348BF0A3200D5B2
:100B900030BD401C41F1000130BD2DE9F0470D464C
:100BA00099469246044600F124080168880604D557
:100BB000E06921F01001216000E00120A84201DD80
:100BC000471B00E00027A1697A1902EB0900081A07
:100BD000A0612078C00602D42046FFF7DEFC002684
:100BE00008E0D4E901211AF806009047206A401C69
:100BF000761C20624E45F4DB2078C0060AD52046DC
:100C0000FFF7CBFC06E0D4E9012130209047206AB1
:100C1000401C2062381EA7F10107F4DC07E0D4E98C
:100C2000012118F805009047206A401C2062281E08
:100C3000A5F10105F3DC2046FFF7C5FC207800068E
:100C400002D50220BDE8F0870120FBE770472DE9BF
:100C5000FF4F0C461E464FF0FF378BB0D2E9000124
:100C6000DDF860800A908A46C1F30A5505B93D4611
:100C7000002108464FF00000BAF1000F00F44000D8
:100C800005DA00EB80004FF4400101EA50004FEA22
:100C90009059B9F1010F00DDB9460A9850EA4A00AF
:100CA0000ED044F61050A5F2FF3545432F14B8F18D
:100CB000000F1ED07542291E1EDDC9F100021CE086
:100CC000B8F1010F4FF0000001D0302103E0F243F2
:100CD00005E02154401CB042FBDB304600220021DD
:100CE00021540B99C1F80880C1E900200FB0BDE87C
:100CF000F08FBD1B6D1CDEE74A4600DA694206A88C
:100D000000F0F0FB06AB93E8070003AB83E80700B5
:100D100050460A9900F0ADFC8DE80700A0F50050A0
:100D20001F3800900398002D0ADD42F21F014A4649
:100D30000844002303A90390684600F016FF09E069
:100D4000A0F500504A461F38002303A903906846C7
:100D500000F020FF8DE807000004000C03D04FF0E6
:100D6000FF30410800E01046B8F1000F03D0002228
:100D7000009215461EE0751E05D4FFF7C9FE3032FD
:100D800062556D1EF9D5B3460122084302D00022F8
:100D90007F1C04E02078302801D100227F1E002A29
:100DA000099784D01DE0112D07DAFFF7B1FE30322C
:100DB00062556D1C50EA0102F5D1084302D000983B
:100DC000C8B10EE00021681E05E0235C625C63543C
:100DD0002254401E491C8142F7DBAB46A81B401E33
:100DE0000990002004F80B000B98099AC0F80880BD
:100DF000C0E9002B7AE711264FF0000857E72DE9EC
:100E0000F04F88460446D21D22F0070191B0D1E987
:100E10000001CDE90A0103F06CFA02460B98C00FFD
:100E200001D02D2007E02068810701D52B2002E0AA
:100E3000202101EAC000032A099001D0072A05DB1E
:100E400003464146204600F00DFB0BE1207880066A
:100E500001D5E06900E00620B8F1650F814606D0B3
:100E6000B8F1660F18D0B8F1670F70D131E00020EB
:100E7000B9F1110F009001DB112301E009F1010329
:100E80000AAA01A90CA8FFF7E2FEDDE90C70002612
:100E900009F10105834647E001204B4600904FF0E1
:100EA00000470AAA01A90CA8FFF7D1FEDDE90DB0A1
:100EB0000C995D46002610B909F101000D18B9EB37
:100EC000050003D4C0F1FF3609F10105A5EB0900C7
:100ED0002BE0B9F1010F01DA4FF001090020B9F15F
:100EE000110F0090484601DD112300E003460AAAD5
:100EF00001A90CA8FFF7ABFEDDE90C704D460026FA
:100F00008346207800070AD4AB4500DA5D4601A885
:100F1000012D04DD411911F8011C302907D04F457E
:100F200002DA17F1040F04DA012082460FE06D1E89
:100F3000EEE7002F02DCED1B3E4403E0781CA842E4
:100F400000DD7D1CB81B00F1010A4FF0004720783E
:100F5000000703D4AA4501DB4FF0FF3A0021B7F1A7
:100F6000004F0DF143088DF8431024D002202B23AD
:100F7000002F01DA7F422D230A21021EA0F1010079
:100F800000DC5FB197FBF1FC97FBF1F201FB1C7CED
:100F900017460CF1300C08F801CDEEE7A8F101007E
:100FA00003702188090501D5452100E06521A0F1E4
:100FB000010800F8011C09980FA9A1EB0807FF1D03
:100FC00000B10120411901EBEA70A1693844081A07
:100FD000401EA0612078C00602D42046FFF7DDFA4B
:100FE000099828B1D4E901219047206A401C206269
:100FF0002078C00622D52046FFF7CFFA1EE0002E4B
:1010000004DBB34502DD01A8805D00E03020D4E9B7
:1010100001219047206A401C2062761CAAF1010041
:101020005FEA000A0AD100F019FAC0680168405C62
:10103000D4E901219047206A401C2062281EA5F1B6
:101040000105DCDC07E0D4E9012118F8010B904729
:10105000206A401C2062381EA7F10107F3DC2046FD
:10106000FFF7B1FA032011B041E600002DE9F04F7F
:1010700004460D46D21D22F0070089B0D0E9009742
:101080004846394603F035F90246F80F01D02D23C2
:1010900007E02068810701D52B2302E0202101EA27
:1010A000C0038DF820300BB1012000E00020032A9E
:1010B000824601D0072A04DB2946204600F0D2F9F7
:1010C0003FE12078800601D40D2500E0E569C7F3F3
:1010D0000A560D2D49DA00214FEA175B08464FF0FA
:1010E0000000002F00F4400007DA00EB80004FF40E
:1010F000400100EBD07001EA60008115012901DD9B
:101100004FF0FF3100224FEA850CBCF1180F06D3D7
:101110001346ACF118004FF08052C24003E04FF488
:10112000801323FA0CF30CF10C0CBCF1200F04D348
:10113000ACF1200C09FA0CF001E007FA0CF00029E0
:101140004FF0004801DD18B90FE00ED140450CD337
:1011500019EB02095F4121B9404502D19F4329EAB9
:101160000209BBEB175F00D0761C2088000502D572
:101170007B48784402E07A487844193808AA30233A
:1011800002F80A30037C0AF10101002E0AF1020A7A
:1011900053546A4602DC4FF0300101E04FF0310158
:1011A0004FF001088DF8001002D0A6F2FF3603E0E0
:1011B00059EA470100D06B4E002D02DC2178090767
:1011C00004D54FF002082E218DF80110C4460021ED
:1011D0000BE0C7F303433F01C35C491C6D1E02F8DB
:1011E0000830052908F1010801DA002DF1DC0021A1
:1011F0000CE000EB1973491C1B786D1E082902F8DE
:1012000008304FEA091908F1010801DA002DF0DC75
:1012100021688B0602D516E0A8F10108E04505DD3E
:1012200002EB080313F8013C302BF5D0B8F1000FA6
:1012300009DD02EB080313F8013C2E2B03D109074B
:1012400001D4A8F10108002D05DD3E2102F80810A7
:101250006D1E08F10108407C002E02F8080008F11C
:10126000010804DA2D20764202F8080002E02B2063
:1012700002F808000A214FF47A70864208F101084A
:101280000BDB96FBF0F3303302F8083096FBF0F3FB
:1012900008F1010800FB136601E0642E0CDB6420FA
:1012A00096FBF0F3303302F8083096FBF0F308F1C8
:1012B000010800FB136601E00A2E06DB96FBF1F045
:1012C000303002F8080008F1010896FBF1F001FB4C
:1012D0001060303002F80800A16908F1010808EB3D
:1012E000050202EB0A00081AA0612078C00602D4A9
:1012F0002046FFF752F9216A08AE01EB0A0020628E
:1013000004E0D4E9012116F8010B9047BAF1010A73
:10131000F7D22078C00602D52046FFF73EF96E4688
:1013200009E016F8010B3E280FD0D4E901219047BF
:10133000206A401C2062B8F10108F2D22046FFF773
:1013400042F909B00320BDE8F08F206A28442062EA
:1013500003E0D4E90121302090476D1EEBD3F8E77C
:101360001E5D000002FCFFFF10B5436913B1AFF32F
:10137000008001E0FFF74AF9012010BD127800F16A
:1013800024010A7000224A700122EDE711684FF033
:10139000FF32E9E710B5436913B1AFF3008001E014
:1013A000FFF7D4F9012010BD128800F124018284D6
:1013B0000022C2840122EDE711684FF0FF32E9E715
:1013C00070B516460C46054600F040F8036893F8E1
:1013D0000101012806D0FF2C0FD8185D68B101204B
:1013E0002C7070BDD3F807013246214603F2071373
:1013F00003442846BDE8704018474FF0FF3070BDE9
:10140000754600F0EBF8AE4605006946534620F0FD
:101410000700854618B020B5FEF71AFFBDE820404A
:101420004FF000064FF000074FF000084FF0000BA0
:1014300021F00701AC46ACE8C009ACE8C009ACE853
:10144000C009ACE8C0098D467047000010B500F037
:1014500005F8001D10BD00BF25560000004870476C
:10146000D00900202DE9F0411F46044603260168FB
:10147000072A01F4006004DB08B116A505E016A5F3
:1014800003E008B115A500E015A521F010002060CB
:10149000A069C01EA0610FB1401EA0612046FFF7E9
:1014A0007CF84FB1D4E9012138469047206A401CAE
:1014B0002062C01C206206E0206AFAE7D4E901211C
:1014C00015F8010B9047761EF8D22046FFF77BF8FF
:1014D000BDE8F0814E414E006E616E00494E4600FF
:1014E000696E66002DE9F047814616468AB0354898
:1014F00078440DC88DE80D0032487844801C03AC58
:101500000DC884E80D0041F69B300844372190FB5C
:10151000F1F290FBF1F5A5F1800501FB12041B3CF3
:1015200002D56442012000E00020DFF898A0804648
:101530000027FA44AAF1BE0A0EE0E0070AD03246BC
:10154000684607EB470101230AEB810100F022FB0B
:101550008DE8070064107F1C002CEED1194F7F44EA
:10156000AE3F19E0E80715D007EB04100DF1180A9B
:1015700090E80E008AE80E00C068F04201D1981988
:1015800008903246012306A903A800F003FB03AB31
:1015900083E807006D10641C002DE3D14FF00103B8
:1015A00032466946B8F1000F03A802D000F0DDFA18
:1015B00001E000F0EFFAC9E90001C9F808200AB01B
:1015C000BDE8F087305A000010B50446AFF3008044
:1015D0002046BDE81040FEF726BE000000487047D8
:1015E000B00900204FF0013C50F8042B51F8043BA7
:1015F0009A4221D1A2EB0C03934313EACC1317D1E7
:1016000050F8042B51F8043B9A4215D1A2EB0C037D
:10161000934313EACC130BD150F8042B51F8043B3D
:101620009A4209D1A2EB0C03934313EACC13DBD00B
:101630004FF00000704700BFD01A01BAB1FA81F133
:1016400001F0180122FA01F0CB40C1F12001DBB218
:10165000C0B2C01A2CFA01F3D11A914311EAC31196
:10166000E6D1704701491820ABBEFEE72600020014
:1016700070475FEA400C08BF91F0000F4FEA8C23DF
:101680004FEAC12243EA51514FEA1C5018BF00F5FE
:10169000F0404FEA300018BF41F000415FEA6C5C57
:1016A00000F02980BCF1FF3F08BF40F08040704748
:1016B000130C06BF12044FF0100C4FF0000C130E69
:1016C00004BF12020CF1080C130F04BF12010CF13D
:1016D000040C930F04BF92000CF1020CD30F04BF53
:1016E00052000CF1010C11464FF00002A0F11F0056
:1016F000A0EB0C00704711F0004F08BF704731F0AD
:1017000000413FF4D5AF0B0C06BF09044FF0100C9D
:101710004FF0000C0B0E04BF09020CF1080C0B0F6C
:1017200004BF09010CF1040C8B0F04BF89000CF1FC
:10173000020CCB0F04BF49000CF1010CCCF12003CB
:10174000A0EB0C0022FA03F302FA0CF241EA0301C7
:1017500000F10100704720F07F4C80EA030023F085
:101760007F47ACEB070303F57C5300F0004003F127
:10177000FF032DE980494FEA154B09B44FEA1443A2
:1017800025EA0B4E24EA03480FF2042606EB132742
:1017900049083E785FEA320203FB0667C7F5000797
:1017A00007FB06F64FEA54374FEAD64606F1020623
:1017B00007FB066CCCF1005C4FEA1C472CEA074C97
:1017C00007FB06F40CFB06F504EB15464FEA9616EC
:1017D00034BF00204FF000404FEAD13706FB07FC32
:1017E0004FEA1C4C0CFB0BF7D21B03FB0CF761EB15
:1017F00007010CFB0EF7B0EB074072EB17420CFB36
:1018000008F734BFA2EB0742B2EB074261EB174186
:101810004FEA0C444FEA910706FB07FC4FEA1C4CC9
:101820000CFB0BF7B0EBC74072EB573203FB0CF726
:1018300034BFA2EBC742B2EBC74261EB57310CFB9E
:101840000EF7B0EBC70072EB57720CFB08F734BF12
:10185000A2EBC702B2EBC70261EB5771039F4FEADD
:10186000816141EA921104EBCC044FEAD1374FEA8F
:10187000826206FB07FC42EA90124FEA80604FEA60
:101880001C4C0CFB0BF7D21B03FB0CF761EB0701A5
:101890000CFB0EF7B0EB074072EB17420CFB08F79E
:1018A00034BFA2EB0742B2EB074261EB17414FEAAC
:1018B0008C554FEA910704EB9C2406FB07FC4FEA8A
:1018C0001C4C0CFB0BF7B0EBC74072EB573203FB21
:1018D0000CF734BFA2EBC742B2EBC74261EB573102
:1018E0000CFB0EF7B0EBC70072EB57720CFB08F75E
:1018F00034BFA2EBC702B2EBC70261EB577115EB25
:101900004C254FEA816141EA92114FEA82624FEA27
:10191000D13742EA901206FB07FC44F100044FEA7B
:1019200080604FEA1C4C0CFB0BF7D21B03FB0CF73F
:1019300061EB07010CFB0EF7B0EB074072EB1742AF
:101940000CFB08F734BFA2EB0742B2EB074261EB96
:10195000174115EB1C154FEA813141EA92414FEADC
:10196000823242EA90424FEA80304FEA0C7644F1EC
:10197000000448EA03434EEA0B484FF0000EB2EB76
:10198000080C71EB030724BF624639464EEB0E0E7E
:101990004FF0000B0018524149414BEB0B0BB2EBDF
:1019A000080C71EB03077BF1000B24BF624639463C
:1019B0004EEB0E0E4FF0000B0018524149414BEB1D
:1019C0000B0BB2EB080C71EB03077BF1000B24BF90
:1019D000624639464EEB0E0E51EA020718BF46F03A
:1019E000010616EB0E7655F1000254F1000103D505
:1019F000BDE88901BDE80088BDE88901BDE800486F
:101A0000B619524141EB0101A3F1010370478080F7
:101A10007F7E7D7C7B7A7978777676757473727148
:101A200071706F6E6E6D6C6C6B6A6A696868676600
:101A300066656464636362616160605F5F5E5E5D92
:101A40005D5C5C5B5B5A5A59595858575756565506
:101A500055555454535352525251515050504F4F68
:101A60004F4E4E4D4D4D4C4C4C4B4B4B4A4A4A49B8
:101A700049494848484747474746464645454544FB
:101A80004444444343434342424242414141002B88
:101A90009C4630D477002BD01CB54FEA370703B4EF
:101AA0004FF010004FF01001BAF1000F06D0BCF15A
:101AB000000FDCBF40F0080040F008014FF00000CC
:101AC0000FBCBDE810400BF1010BBBF1010F08BFCB
:101AD0005FEA170722BF12F1010211F101014FF075
:101AE000004143F1000300F0004043EA000070476A
:101AF000F9D35708D0E746EA064613F1400F4FEAFC
:101B000016461FDD13F1200FDFBF16430A460021E2
:101B100020335B42BED0C3F1200746EA064602FAF4
:101B200007F74FEA164646EA0706C3F1200722FAEE
:101B300003F201FA07F721FA03F14FF0000342EA3A
:101B40000702A7E746EA020646EA06464FEA1646B5
:101B500046EA0106BCBF46EA0646360C4FF00003D3
:101B60004FF000024FF0000194E72DE9804C9A46B7
:101B7000934670B491E8380007C831EA400C48BF7A
:101B800034EA430C03D5FFF7E6FDFFF780FFF0BC16
:101B9000BDE8008C2DE9804C9A46934670B491E8DC
:101BA000380007C810F0804F08BF13F0804F03D1F2
:101BB00000F005F8FFF76BFFF0BCBDE8008C20F0EB
:101BC0007F4780EA030023F07F4C07EB0C03A3F56B
:101BD0007C5300F00040A3F1FE0392F0000F00F0F0
:101BE000B38095F0000F00F077802DE901494FEAAE
:101BF00011404FEA144621EA004800FB06FC24EAA3
:101C0000064708FB06F607FB08F800FB07F718EB8A
:101C100006484CEB164C4FEA124B18EB07484FEABC
:101C200015464CEB174022EA0B4E0BFB06FC25EA4F
:101C300006470EFB06F607FB0EFE0BFB07F71EEB37
:101C4000064E4CEB164C4FF000061EEB074E4CEBCD
:101C5000174B18EB0B0840F1000018EB0E0B58EB7C
:101C6000000840F100008F1A4FF000013CBFC9434B
:101C7000661B14BFB5EB040C00213CBFC943F61B27
:101C80004FEA17444EEA8E0E27EA04454FEA1C47F6
:101C900004FB07622CEA074C05FB07F70CFB05F673
:101CA00004FB0CFC16EB074642EB174216EB0C4606
:101CB00042EB1C421BEB060658EB0202414146EA8E
:101CC0009E0601D5BDE80189B619524141EB0101DB
:101CD000A3F10103BDE801894FEA14454FEA11471A
:101CE00024EA054621EA074C05FB07F406FB07F743
:101CF0000CFB06F105FB0CFC11EB074144EB174410
:101D00004FEA124711EB0C4144EB1C4422EA074C0A
:101D100005FB07F206FB07F70CFB06F605FB0CFCC0
:101D200016EB074642EB174216EB0C4642EB1C45FE
:101D30006A1854F1000148BF7047B619524141EB8F
:101D40000101A3F10103704795F0000F37D04FEA6E
:101D500011424FEA144721EA024624EA074C02FBEB
:101D600007F106FB07F70CFB06F402FB0CFC14EB77
:101D7000074441EB17414FEA154714EB0C4441EB84
:101D80001C4125EA074C02FB07F506FB07F70CFB95
:101D900006F602FB0CFC16EB074645EB174516EB67
:101DA0000C4645EB1C42121951F1000148BF704727
:101DB000B619524141EB0101A3F1010370474FEA0B
:101DC00014454FEA114724EA054621EA074C05FB72
:101DD00007F106FB07F70CFB06F24FF0000605FBC8
:101DE0000CFC12EB074241EB174112EB0C4251EB9A
:101DF0001C4148BF7047921841EB0101A3F1010358
:101E00007047FEE7014800F083B90000540100204C
:101E1000014800F07DB90000B0020020014800F048
:101E200077B900006C020020014800F071B9000091
:101E30002802002030B590F840500124AC40C56B1A
:101E40006C60046863604368102B036803D099607A
:101E50000068C26030BD9A600068C16030BD7047E4
:101E6000202000F019BB72B6FEE7000006490020F2
:101E7000C8610648016941F004010161016941F04E
:101E80004001016170470000F8020020002002407C
:101E9000064A0021D16106490A6942F002020A613C
:101EA0004861086940F0400008617047F80200206E
:101EB00000200240044B0022DA61044A136943F017
:101EC0000103136101807047F802002000200240E6
:101ED00014480022C168CB06134904D5CA6942F0F0
:101EE0000202CA611022C3685B0705D5CB6943F0C3
:101EF0000103CB6142F00402C369DB0707D0CB6961
:101F000043F00403CB61C16921F00101C161A2F575
:101F10008071013901D0C2607047C16921F00101AF
:101F2000C161704700200240F802002070B50546EC
:101F300000F0B4FB0646114C09E0681C07D025B13F
:101F400000F0ACFB801BA84201D9032070BDE06803
:101F5000C007F2D1E068800601D52020E060E0688B
:101F6000C00605D4E069C00702D1E068400703D588
:101F7000FFF7AEFF012070BD002070BD00200240C1
:101F800030B585B004460025A0F100600495B0F599
:101F9000803F02D3002005B030BD00F067FA012079
:101FA000CDE9024004A90095684600F0C1F910B1DE
:101FB00000F012FAEEE700F00FFA0120EBE7000064
:101FC00010B5002306E000BF50F8234041F823403D
:101FD0005B1C9BB29342F7D310BD00002DE9F0418A
:101FE00016460F460546B0F1006F04D30F4905EBC6
:101FF0008600884202D90020BDE8F08100F036FA60
:1020000000240DE057F8242005EB84010023022072
:1020100000F0ECF910B100F0DFF9ECE7641CA4B2B9
:10202000B442EFD300F0D8F90120E5E70000010841
:1020300010B590F821100022022905D004218163F7
:1020400080F82020012010BD01680B6823F00E03EA
:102050000B6001680B6823F001030B6090F84030BF
:10206000C46B012101FA03F3636080F8211080F84A
:102070002020104610BD000010B590F8211000245B
:10208000022903D00421816301243DE001680A682C
:1020900022F00E020A6001680A6822F001020A605A
:1020A0001A4A0168914201D1012121E0174A1432F4
:1020B000914201D110211BE0144A2832914201D1F2
:1020C000891515E0114A3C32914201D189140FE083
:1020D0000E4A5032914202D14FF4803108E00B4A4F
:1020E0006432914202D14FF4801101E04FF08071CF
:1020F000064A083A5160012180F82110002180F839
:102100002010416B01B18847204610BD08000240F5
:102110002DE9F05FC16B0C6801680B68D0F840C016
:10212000042202FA0CF2494DDFF824A1494E4A4F2D
:10213000DFF828B1DFF828E122422CD05A072AD54F
:102140000A68920603D40A6822F004020A60016851
:10215000A94201D1042219E0514501D1402215E0E4
:10216000B14202D14FF4806210E0B94202D14FF483
:1021700080420BE0594502D14FF4802206E07145C0
:1021800002D14FF4800201E04FF080622F490839FC
:102190004A60C16A3BE04FF0020808FA0CF818EAFE
:1021A000040F4FF000094FF0010235D05FEA837849
:1021B00032D50B689B0605D40B6823F00A030B602D
:1021C00080F821200168A94201D1022219E051457D
:1021D00001D1202215E0B14202D14FF4007210E08B
:1021E000B94202D14FF400520BE0594502D14FF4ED
:1021F000003206E0714502D14FF4001201E04FF0C9
:102200000072124908394A6080F82090816A0029DA
:102210001AD0BDE8F05F0847082505FA0CF52542FD
:1022200012D01B0710D50B6823F00E030B6090F83B
:102230004010C36B02FA01F15960826380F82120DB
:1022400080F82090016BE2E7BDE8F09F08000240B3
:102250001C0002403000024044000240580002408E
:102260006C00024030B528B308C813491422194441
:10227000B1FBF2F18900C16310498163022141770A
:102280001A6843F6F0718A43D0E900142143D0E97B
:1022900002452C4321430469214344692143846955
:1022A00021431143196000214163012242770177E4
:1022B000084630BD012030BDF8FFFDBF00000240E0
:1022C00070B5044690F82000002501280CD00120AC
:1022D00084F8200094F821600020012E06D084F8B4
:1022E00020000225284670BD022070BD022684F819
:1022F0002160A0632068066826F00106066020467B
:10230000FFF798FDE06A00282068016802D041F0DC
:102310000E0106E021F0040101602068016841F02F
:102320000A0101602068016841F001010160D9E7FC
:102330002DE9F047054626480F460126017E012972
:102340000FD00121814601762868DFF888804CF2A1
:102350005034022808D0A2462046FFF7E7FDA8B176
:1023600031E00220BDE8F0872046FFF7DFFD08BB23
:102370000120FFF77BFD2046FFF7D8FDD8F81010AD
:10238000064621F00401C8F810101CE04FF0FF30A1
:102390003860AC6811E02046FFF77AFD5046FFF741
:1023A000C5FDD8F81010060021F00201C8F8101081
:1023B00001D03C6007E004F58064D5E9020100EB40
:1023C0008120A042E7D8002189F818103046C9E7DB
:1023D000F8020020002002400348016941F080011A
:1023E0000161002070470000002002402DE9F05FED
:1023F00007461C4888460024017E15461E460129D2
:1024000009D00121814601764CF2503A5046FFF73F
:102410008DFD18B122E00220BDE8F09F012F02D00F
:10242000022F00D00427D346DFF83CA02201284623
:102430003146FDF796FF81B208EB4400FFF73AFD05
:102440005846FFF773FDDAF8102022F00102CAF8AF
:10245000102018B9641CE4B2BC42E7D3002289F80A
:102460001820D9E7F8020020002002400649002089
:102470000A69120607D5054A4A60054A4A60096991
:10248000090600D50120704700200240230167455E
:10249000AB89EFCD03F01ABB044910B50A680242BC
:1024A00002D00860FFF7F6FF10BD000014040140E1
:1024B0002DE9F84FDFF8B8910024A9F1040B234669
:1024C0000F2709F1040AABF1040EC9E00125A5406C
:1024D0002A40AA427DD1674ED1F804C0ACEB060871
:1024E000B44532D014DCBCF1030F3AD009DCBCF1A6
:1024F000000F2AD0BCF1010F1CD0BCF1020F31D16A
:102500001DE0BCF1110F17D0BCF1120F2AD119E058
:10251000B8F5881F19D006DCB8F5803F15D0B8F59E
:10252000801F1FD111E0B8F5001F0ED0B8F5041FB1
:1025300018D10AE0CB6815E0CB681B1D12E0CB6810
:1025400008330FE0CB680C330CE08B682BB1012B08
:102550004FF0080303D0456104E0042302E0056165
:1025600000E00023FF2A01D8064601E000F104063E
:102570004FEA840501D9A5F12005D6F8008007FAB5
:1025800005FC28EA0C0803FA05F548EA0508C6F830
:1025900000804D68ED0062D5374DAE6946F001060A
:1025A000AE61AD6924F0030605F001050095334DD9
:1025B00006EB050CDCF80850A607360F07FA06F8FC
:1025C00025EA0805DFF8B880404503D14FF0000840
:1025D00017E044E0DFF8AC80404502D14FF001083D
:1025E0000FE0DFF8A480404502D14FF0020808E078
:1025F000DFF89880404502D14FF0030801E04FF02A
:10260000040808FA06F848EA0508CCF808804D687E
:10261000D9F80060ED024D4601D5164300E096431F
:102620002E604D68DAF80060AD02554601D51643BC
:1026300000E096432E604D68DBF80060AD035D4618
:1026400001D5164300E096432E604D68DEF8006029
:10265000ED03754601D5164300E096432E60641CD9
:102660000D682A46E5407FF431AFBDE8F88F0000E1
:102670000804014000001110001002400000014059
:1026800000080140000C014000100140001401400E
:102690000AB1016170470904FBE700000148806846
:1026A0007047000000000020024881680278114451
:1026B0008160704700000020074810B5016841F0B4
:1026C00010010160032000F075F80F2000F006F8FB
:1026D00000F024F8002010BD0020024070B50D4D20
:1026E00004464FF47A712878B1FBF0F00A49096882
:1026F000B1FBF0F000F0DCFA48B9102C07D2002250
:102700002146501E00F036F800206C6070BD01209C
:1027100070BD0000000000200C0000200C4808B52F
:10272000816941F001018161816901F0010100913C
:10273000C16941F08051C161C06900F080500090D2
:102740000448416821F0E06141F00071416008BD3A
:102750000010024000000140002809DB00F01F02C9
:10276000012191404009800000F1E020C0F80011F3
:1027700070470000F0B40E4B1B680C46C3F30223F5
:10278000C3F10705042D00D90425191D072901D21D
:10279000002300E0DB1E012606FA05F1491E214058
:1027A00099409E40761E16403143F0BC01F0B5BD05
:1027B0000CED00E0064900F0070208684FF6FF0341
:1027C000184040EA0220034A1043086070470000A6
:1027D0000CED00E00000FA052DE9F0470F4605007A
:1027E00061D0434E306800F00700B84209D230682B
:1027F00020F0070038433060306800F00700B8422E
:1028000051D128683B4C810712D5400703D5606839
:1028100040F4E06060602878000703D5606840F409
:10282000605060606068A96820F0F0000843606054
:102830002878C00728D06868012810D021680228AD
:1028400010D0890700292EDA616821F003010143C5
:102850006160FFF723FF804641F288390DE021686F
:102860008903EFE78901EDE7FFF718FFA0EB080107
:10287000494502D90320BDE8F0876068696800F027
:102880000C00B0EB810FEFD1306800F00700B842C8
:102890000BD9306820F0070038433060306800F012
:1028A0000700B84201D00120E5E72878400705D5A8
:1028B0006068E96820F4E0600843606028780007F9
:1028C00006D56068296920F4605040EAC100606064
:1028D00000F038F86168084AC1F30311515CC84040
:1028E0000649086006480068FFF7F8FE0020C2E7C6
:1028F0000020024000100240C26A00080C000020C4
:10290000040000200448054900684968044AC1F3EE
:102910000221515CC84070470C00002000100240AA
:10292000D26A00080448054900684968044AC1F3AE
:10293000C221515CC84070470C00002000100240CA
:10294000D26A00080E4A51680E4801F00C03042BAD
:1029500011D0082B0FD10C48C1F38343C903C05CCD
:102960000AD55168084AC1F34041921E515C054A9C
:102970005043B0FBF1F070470449484370470000F2
:102980000010024000127A00B26A000800093D00FF
:102990002DE9F84F040070D02078C04DC00749D011
:1029A0006868C0F38100012807D06868C0F381001F
:1029B000022809D16868C00306D52868800339D584
:1029C00060680028E7D035E06068B0F5803F0BD044
:1029D00010B1B0F5A02F11D0286820F48030286005
:1029E000286820F4802002E0286840F480302860C5
:1029F000606890B1FFF752FE06460AE0286840F48E
:102A000080202860F0E700BFFFF748FE801B6428A5
:102A100073D828688003F7D50CE0FFF73FFE064621
:102A200005E000BFFFF73AFE801B6428F0D8286855
:102A30008003F7D420789A4E80074FF001094FF0B9
:102A4000000839D5686810F00C0F07D06868C0F32B
:102A50008100022809D16868C00306D4286880076D
:102A600014D52069012808D110E02069B0B1C6F85A
:102A70000090FFF713FE074605E00AE1FFF70EFEA0
:102A8000C01B0228C4D828688007F7D52868616968
:102A900020F0F80040EAC10028600DE0C6F8008090
:102AA000FFF7FCFD074604E0FFF7F8FDC01B022816
:102AB00023D828688007F7D4207800072CD57948D8
:102AC000A169D9B1C0F80090FFF7E8FD074604E01E
:102AD000FFF7E4FDC01B02280FD8686A8007F7D50E
:102AE00071484FF4FA510068B0FBF1F0009000BF5C
:102AF0000098411E0091FAD20EE080E0C0F80080FC
:102B0000FFF7CCFD074604E0FFF7C8FDC01B022815
:102B100075D8686A8007F7D42078400760D5E869DF
:102B20000027C00008D4E86940F08050E861E869F7
:102B3000012700F0805000905C480168C90513D45B
:102B40000168834641F480710160FFF7A7FD82466A
:102B500006E000BFFFF7A2FDA0EB0A0064284ED8F4
:102B6000DBF80000C005F5D5E06801280AD008B1FF
:102B7000052813D0286A20F001002862286A20F076
:102B8000040002E0286A40F001002862E06841F297
:102B9000883B98B1FFF782FD82460BE0286A40F03F
:102BA00004002862EEE700BFFFF778FDA0EB0A0102
:102BB00059455AD8286A8007F6D50CE0FFF76EFD14
:102BC000824605E0FFF76AFDA0EB0A0159454CD8A3
:102BD000286A8007F6D41FB1E86920F08050E861C8
:102BE000E06988B36968C1F38101022944D00228F1
:102BF000C6F8608004D0FFF751FD044638E034E0A9
:102C0000FFF74CFD074604E0FFF748FDC01B022814
:102C10002BD828688001F7D4206AB0F5803F05D111
:102C20006868A16820F4003008436860D4E90801AE
:102C30000843696821F4741108436860C6F860901D
:102C4000FFF72CFD044606E025E000BFFFF726FD58
:102C5000001B022809D828688001F7D51BE000BFB7
:102C6000FFF71CFD001B022802D90320BDE8F88FE6
:102C700028688001F4D40EE00128F7D06868226A41
:102C800000F48031914204D1616A00F470108842EE
:102C900001D00120EAE70020E8E700000010024030
:102CA00000004242800442420C00002000700040BC
:102CB00010B5401EB0F1807F01D3012010BD4FF050
:102CC000E02460610F21601701F027FB0020A06164
:102CD00007202061002010BD7047704770B590F844
:102CE0003C20012A26D0012480F83C40022280F8B2
:102CF0003D2003685A689D6822F070060A683243D6
:102D00005A600D4B02689A4208D0B2F1804F05D04C
:102D10000A4B9A4202D00A4B9A4204D1496825F0E4
:102D200080031943916080F83D40002180F83C10F9
:102D3000084670BD022070BD002C01400004004018
:102D40000008004010B5040003D094F83D0010B115
:102D500007E0012010BD002084F83C00204600F070
:102D60001FF8022084F83D00211D206800F068FF54
:102D7000012084F8460084F83E0084F83F0084F87F
:102D8000400084F8410084F8420084F8430084F84D
:102D9000440084F8450084F83D00002010BD000088
:102DA00038B505460068234A2349904211D1886905
:102DB00040F4006088618869002200F4006000909F
:102DC00011461920FFF7D6FCBDE838401920FFF75F
:102DD000C3BC1A4A904208D1C86940F00200C861D9
:102DE000C86900F00200009038BD154A9042FBD13E
:102DF000C86940F00400C861C869134C00F00400C1
:102E00000090104820601020606000205115A060E4
:102E1000C4E903018900C4E905104FF44050E061A2
:102E20002046FFF71FFA08B1FFF71DF86C626562D4
:102E300038BD0000002C014000100240000400409A
:102E400000080040080002405401002070B504460C
:102E500090F83C000025012817D0012684F83C603A
:102E6000022084F83D002068826822F0770222F474
:102E70007F4282600868502838D00DDC20284FD06F
:102E800005DC90B3102811D14AE0022070BD302833
:102E900046D040280AD13BE060282FD070280DD0C2
:102EA000B0F5805F03D0B0F5005F12D0012584F843
:102EB0003D60002084F83C00284670BDCB68D1E915
:102EC0000121206800F0F8FE2068816841F0770158
:102ED00009E0CB68D1E90121206800F0EDFE20680F
:102EE000816841F480418160E1E719E0CA6849687E
:102EF000206800F0DBFF5021206806E0CA684968BE
:102F0000206800F0E4FF6021206800F0DFFECEE7DB
:102F1000CA684968206800F0C9FF40212068F4E7CA
:102F2000226801461046F0E770472DE9F04104465B
:102F30000068C66805694FF00007A90713D5B107F7
:102F400011D5F91E01610120207720688069800772
:102F5000204602D0FFF7E8FF04E000F0CEF820465C
:102F600000F08EF92777680716D5700714D5216809
:102F70006FF004000861022020772068806910F457
:102F8000407F204602D0FFF7CFFF04E000F0B5F805
:102F9000204600F075F92777280715D5300713D597
:102FA00021686FF008000861042020772068C0695C
:102FB0008007204602D0FFF7B7FF04E000F09DF83D
:102FC000204600F05DF92777E80616D5F00614D5FF
:102FD00021686FF010000861082020772068C06920
:102FE00010F4407F204602D0FFF79EFF04E000F07F
:102FF00084F8204600F044F92777E80708D0F00766
:1030000006D021686FF001000861204600F039F910
:10301000280608D5300606D521686FF080000861C3
:103020002046FFF759FE680608D5700606D52168C8
:103030006FF040000861204600F04FF9A8060AD55D
:10304000B00608D521686FF0200008612046BDE871
:10305000F041FFF742BEBDE8F081000000B585B049
:103060000021009101910291039100680B4988426F
:1030700012D10B48816941F0040181618069694680
:1030800000F00400049040200090022001900320F2
:1030900003900448FFF70CFA05B000BD000400409F
:1030A000001002400008014070B5044690F83C0052
:1030B000002501280FD0012084F83C006AB1042AC1
:1030C0000FD0082A11D00C2A13D00125002084F833
:1030D0003C00284670BD022070BD206800F0FEFD57
:1030E000F4E7206800F022FEF0E7206800F04AFED6
:1030F000ECE7206800F072FEE8E7704710B50400C6
:1031000003D094F83D0010B107E0012010BD00206D
:1031100084F83C00204600F01EF8022084F83D00B0
:10312000211D206800F08CFD012084F8460084F801
:103130003E0084F83F0084F8400084F8410084F8A1
:10314000420084F8430084F8440084F8450084F881
:103150003D00002010BD704770B5044690F83C005B
:1031600000260D4601280FD0012084F83C006AB1EA
:10317000042A1DD0082A2FD00C2A3FD00126002077
:1031800084F83C00304670BD022070BD206800F01D
:10319000A5FD2068816941F008018161206881698D
:1031A00021F004018161206881692A69114311E0DD
:1031B000206800F0BBFD2068816941F400618161F5
:1031C0002068816921F480618161206881692A69B0
:1031D00041EA02218161D2E7206800F0D3FD206836
:1031E000C16941F00801C1612068C16921F0040191
:1031F000C1612068C1692A69114311E0206800F0AB
:10320000EDFD2068C16941F40061C1612068C169B8
:1032100021F48061C1612068C1692A6941EA022103
:10322000C161ACE710B5040003D094F83D0010B1C3
:1032300007E0012010BD002084F83C00204600F08B
:103240001EF8022084F83D00211D206800F0F8FCE3
:10325000012084F8460084F83E0084F83F0084F89A
:10326000400084F8410084F8420084F8430084F868
:10327000440084F8450084F83D00002010BD7047EC
:103280007047704770B5044690F83C00012812D092
:10329000012584F83C50022084F83D00204600F0CF
:1032A000BFFD01004FF0000007D084F83D5084F8C6
:1032B0003C00012070BD022070BD2168CA6822F068
:1032C0004002CA602168CA6822F48042CA6084F859
:1032D0003D5084F83C00002070BD704738B504466E
:1032E00090F84200202801D0022038BD51B14AB1E7
:1032F0000120206300206063204600F0A5FF216BC1
:10330000012901D0012038BD21680A68496800916F
:1033100021680C3151E8002F42F0100241E80023EF
:10332000002BF5D138BD000010B50C46104A0168DD
:1033300091421BD100F026F80E49224601F580701B
:10334000FDF760F80C484480012101700C02214611
:103350000848FDF7D6F8224606490848FFF7BEFFA1
:1033600007480068016821F00401016010BD0000F9
:1033700000380140180400201000002098010020AF
:103380002802002010B504460068406994F84110F6
:10339000C0F3C010212911D180B12068143050E849
:1033A000001F21F0800140E80012002AF5D1A06B37
:1033B00008B1FEF73DFE204600F067FE2068406938
:1033C00094F84210C0F38010222911D180B12068F6
:1033D000143050E8001F21F0400140E80012002A9C
:1033E000F5D1E06B08B1FEF723FE204600F026FE83
:1033F000002010BD70470000F8B501680446086859
:10340000CA684B6910F00F0F4FF0000559D003F058
:10341000010602F49077374365D0C10705D0D10586
:1034200003D5616C41F001016164410705D5D907FD
:1034300003D0616C41F002016164810705D5D907B1
:1034400003D0616C41F004016164010707D502F00B
:103450002001314303D0616C41F008016164616C6B
:1034600000293AD0800604D5900602D5204600F007
:103470001AFE20684069616CC0F38010090700D40F
:1034800060B3204600F0DAFD20684069400621D58F
:103490002068143050E8001F21F0400140E800127D
:1034A000002AF5D1E06BA8B16D494163E06BFEF7EE
:1034B000E3FD002811D0E06B416B01B0BDE8F040A6
:1034C000084783060FD593060DD52046BDE8F84082
:1034D00000F0E9BD2046FFF78DFFF8BD2046FFF75D
:1034E00089FF6564F8BD266B2023012E7CD1C606BA
:1034F0007AD5D60678D508684868009048694FF0B4
:103500000206400640D5E16B086840680004000CE4
:10351000E8D0A28D8242E5D9E085886920282DD0A7
:1035200020680C3050E8001F21F4807140E8001240
:10353000002AF5D12068143050E8001F21F0010165
:1035400040E80012002AF5D12068143050E8001F2E
:1035500021F0400140E80012002AF5D184F8423001
:10356000256320680C3050E8001F21F0100140E86E
:103570000012002AF5D1E06BFEF75AFD6663A08DBC
:10358000E18D401A81B22AE0A08DE18D401A81B20E
:10359000E08D0028A6D00029A4D022680C3252E881
:1035A000000F20F4907042E80007002FF5D120684A
:1035B000143050E8002F22F0010240E80027002FCD
:1035C000F5D184F84230256320680C3050E8002F94
:1035D00022F0100240E80023002BF5D1666320465C
:1035E000FFF7A2FEF8BDFFE705062BD5150629D586
:1035F00094F841002128F5D1A068B0F5805F01D191
:103600002069B0B1206A411C2162216800784860BD
:10361000E08C401E0004000CE084E3D12068C16807
:1036200021F08001C1602068C16841F04001C160A3
:10363000D8E7206A0088C0F308004860206A801C30
:103640002062E5E74006CDD55006CBD5CA682046B6
:1036500022F04002CA6084F8413000F02BF9C1E743
:10366000F33E000870B5040004D094F84100002532
:1036700010B106E0012070BD84F84050204600F0F3
:1036800023F8242084F841002068C16821F4005107
:10369000C160204600F07CFD2068016921F4904162
:1036A00001612068416921F02A0141612068C168F7
:1036B00041F40051C1606564202084F8410084F821
:1036C00042006563002070BD2DE9F04385B0002401
:1036D0000094019402940394064603685048DFF86E
:1036E0003CC102210322051580274FF010086345D5
:1036F00050D1836943F480438361836903F4804339
:103700000493836943F0040383618069DFF81491B3
:1037100000F0040004900802CDE90001039269461C
:103720004846FEF7C5FECDE9005469464846029476
:10373000FEF7BEFE3D4D3C48C5E90004C5E9024721
:103740002C6180146C61C5E906402846FEF78AFDAD
:1037500008B1FEF788FBF5636E62344D324844359C
:103760001438C5E902472C616C61C5E900084FF4C3
:103770004050C5E906402846FEF774FD08B1FEF743
:1037800072FBB5630022114625206E62FEF7F2FF40
:1037900025203DE0DFF898C063453BD1C36943F481
:1037A0008023C361C36903F480230493836943F0D6
:1037B000080383618069CDE9005100F00800CDE97C
:1037C00003201C4D69462846FEF772FEE814CDE939
:1037D0000004694628460294FEF76AFE134D12481B
:1037E00088353C38C5E902472C616C61AC61EC61FD
:1037F000C5E900082846FEF735FD08B1FEF733FBA2
:10380000B5630022114627206E62FEF7B3FF272022
:10381000FEF7A2FF05B0BDE8F083000000380140CC
:103820000010024000080140580002402802002019
:1038300000480040000C01407047704770B50446D6
:1038400090F84100202801D0022070BD49B342B356
:103850002162A284E28400206064212384F8413044
:10386000A56B114BAB62A56B104BEB62A56B104BBC
:103870002B63A36B5863256813462A1DA06BFEF7C4
:103880001FFD21686FF0400008602068143050E888
:10389000001F41F0800140E80012002AF5D100200D
:1038A00070BD012070BD0000F13F000833400008EA
:1038B000033F000870477047FEE70000154808B551
:1038C000416941F0010141614069002200F00100BD
:1038D000009011460B20FEF74DFF0B20FEF73CFF3A
:1038E000002211460C20FEF745FF0C20FEF734FFA6
:1038F000002211460E20FEF73DFF0E20FEF72CFFA2
:10390000002211460F20FEF735FFBDE808400F20CA
:10391000FEF722BF0010024070B586B00024244894
:103920000094019402940394816941F01001816133
:10393000816901F010010491816941F020018161E8
:10394000816901F020010491816941F004018161E4
:10395000816901F004010491816941F008018161EC
:103960008069144E00F00800049000228021304647
:10397000FEF78EFE202000900F480225CDE90105BC
:1039800069463046FEF794FD8020009001AA012090
:1039900082E8310069463046FEF78AFD0022114672
:1039A0001720FEF7E7FE1720FEF7D6FE06B070BD23
:1039B00000100240000801400000111010B586B050
:1039C0000024184800940194029403940494144928
:1039D000059401604721C0E9011440F2E731C0E9D4
:1039E00003148021C0E90541FFF7ACF908B1FEF7E7
:1039F0003AFA4FF48050009069460A48FFF726FAD9
:103A000008B1FEF730FA049404A906480594FFF7BC
:103A100065F9002801D0FEF726FA06B010BD0000B7
:103A2000002C01407C00002030B58DB000240794AC
:103A3000089409940A940B941C2168460C94FCF792
:103A400082FD1F481D498025C0E900144FF6FF7113
:103A5000C0E9024185610461FFF774F908B1FEF71E
:103A600002FA4FF48050079007A91548FFF7EEF9C6
:103A700008B1FEF7F8F91248FFF7D4FB08B1FEF7DA
:103A8000F2F92020CDE90B050BA90D48FFF726F927
:103A900008B1FEF7E8F96020CDE9000402940022A5
:103AA000694607480494FFF757FB08B1FEF7DBF9B6
:103AB0000348FFF7D3FA0DB030BD0000000400400A
:103AC000C400002010B58EB0142107A8FCF73BFD00
:103AD00000240C941C2168460D94FCF734FD1D480D
:103AE0001B49C0E900144FF6FF71C0E902410461AF
:103AF0008461FFF727F908B1FEF7B5F91548FFF71C
:103B0000FDFA08B1FEF7AFF90720079020200890D2
:103B100007A91048FFF7B6FB08B1FEF7A4F90C940B
:103B20000CA90C480D94FFF7D9F808B1FEF79BF9E2
:103B30000094019402940022694606480494FFF719
:103B4000B3FA002801D0FEF78EF90EB010BD0000C8
:103B5000000800400C0100200C4810B50A49016023
:103B60004FF4E1314160002181600C22C160C0E965
:103B700004128161C161FFF775FD002803D0BDE823
:103B80001040FEF770B910BD0038014098010020C8
:103B90000C4810B50A4901604FF4E1314160002141
:103BA00081600C22C160C0E904128161C161FFF72C
:103BB00059FD002803D0BDE81040FEF754B910BDF0
:103BC00000480040E0010020FEE7FEE77047704734
:103BD000FEF76ABD30B58FB028216846FCF7B3FC0C
:103BE00014210AA8FCF7AFFC01210804CDE900105C
:103BF0000024029402250491CDE907504FF4E0100F
:103C000009906846FEF7C4FE08B172B6FEE70F20C1
:103C1000CDE90A054FF48060CDE90C4002210AA8E5
:103C20000E94FEF7D9FD002801D072B6FEE70FB062
:103C300030BD70470148FFF778B900007C000020D4
:103C4000F0B50268194B1A4C1A4D4FF08047984254
:103C500005D0B84203D0A04201D0A84203D122F03F
:103C600070064A683243984205D0B84203D0A04259
:103C700001D0A84203D122F44074CA6822434C699F
:103C800022F08002224302608A68C2620A6882626D
:103C9000984201D109690163012141610169C907A4
:103CA00003D0016921F001010161F0BD002C014048
:103CB000000400400008004010B5846842EA032276
:103CC00024F47F440A432243826010BD826822F0BC
:103CD00070020A4342F007018160704730B5036A01
:103CE000026A22F0010202624268846924F07305CC
:103CF0000C682C4323F002058B682B430A4DA84225
:103D00000BD123F00805CB6822F440722B434D6998
:103D100023F0040315438A692A4342608461496899
:103D20004163036230BD0000002C014030B5026ADF
:103D3000036A23F010030362436884690D6824F466
:103D4000E64444EA05248D6822F0200242EA051286
:103D50000B4DA8420ED1CD6822F0800242EA051236
:103D60004D6923F4406343EA85038D6922F04002E4
:103D700043EA85034360846149688163026230BD20
:103D8000002C014030B5036A026A22F4807202629C
:103D90004268C46923F4007324F073050C682C4353
:103DA0008D6843EA05230C4DA8420ED1CD6823F45B
:103DB000006343EA05234D6922F4405242EA0512AA
:103DC0008D6923F4806342EA05124260C461496848
:103DD000C163036230BD0000002C014030B5046AAD
:103DE000026A22F4805202624268C3690D6823F4B9
:103DF000E64343EA05238D6824F4005444EA05347D
:103E0000064DA84204D14D6922F4804242EA85124F
:103E10004260C36149680164046230BD002C014006
:103E200070B5036800249A6822F070054A682A4336
:103E300022F007050A682A439A604A6812F00F0FB9
:103E400031D11211082A2ED2DFE802F02E2E2E2EAA
:103E50000B2127040B69D1E902210068FFF72CFF31
:103E600022E00A68052A10D00268136A156A25F054
:103E70000105156202689569096925F0F00545EAB2
:103E800001119161006803620EE0012070BD0A69B2
:103E90008968006800F00AF806E00A698968006825
:103EA00000F015F800E00124204670BD10B5036A4B
:103EB000046A24F001040462846924F0F00444EAF2
:103EC000021423F00A020A438461026210BD10B595
:103ED000036A046A24F010040462846923F0A003D6
:103EE00024F4704444EA023243EA0111826101621F
:103EF00010BD10B5406A0021C185C184FFF77AFA70
:103F000010BD70B5446A2068406994F84110C0F350
:103F1000C0100025212904D118B1E584204600F005
:103F2000B4F82068406994F84210C0F38010222948
:103F300004D118B1E585204600F080F8606C40F0AF
:103F4000100060642046FFF755FA70BD10B50146B9
:103F5000406A096809684FF0000289062ED4C285BC
:103F600001680C3151E8003F23F4807341E80034CC
:103F7000002CF5D10168143151E8003F23F0010312
:103F800041E80034002CF5D10168143151E8003FBC
:103F900023F0400341E80034002CF5D1202180F8C3
:103FA0004210016B012909D101680C3151E8003F31
:103FB00023F0100341E80034002CF5D14263016B7B
:103FC000012902D0FFF738FC10BD818DFFF7ACF955
:103FD00010BD10B5406A01214163016B012902D077
:103FE000FFF72BFC10BD818D4908FFF79DF910BD2F
:103FF00010B50146406A09680968890616D400218F
:10400000C1840168143151E8002F22F0800241E898
:104010000023002BF5D101680C3151E8002F42F04C
:10402000400241E80023002BF5D110BDFFF742FC10
:1040300010BD10B5406AFFF73EFC10BD01680C31A1
:1040400051E8002F22F4907241E80023002BF5D1B3
:104050000168143151E8002F22F0010241E80023E9
:10406000002BF5D1016B012909D101680C3151E810
:10407000002F22F0100241E80023002BF5D120216F
:1040800080F8421000210163704701680C3151E84B
:10409000002F22F0C00241E80023002BF5D120219F
:1040A00080F84110704708B590F84210222901D0DD
:1040B000022008BD82684FF480539A4201D1016901
:1040C00021B1816A9A421BD04AB10AE00268816A32
:1040D0005268C2F308020A80816A891C08E00269FA
:1040E00072B10268526802F07F020A70816A491C4C
:1040F0008162C18D491E0904090CC18503D01BE0F2
:1041000002685268F1E70168CA6822F02002CA60BA
:104110000168CA6822F48072CA6001684A6922F0A4
:1041200001024A61202180F8421000214163026BA4
:10413000012A03D0FFF780FB002008BD016301685E
:104140000C3151E8002F22F0100241E80023002B2F
:10415000F5D101680A68D20602D50A68496800915B
:10416000818DFFF7E1F8E7E710B54FF4807205495C
:104170000548FFF7B3F805480068016821F004011D
:10418000016010BD180400209801002028020020C2
:1041900070B5044600680169E26821F4405111439A
:1041A00001612169A0680843616908432168CA6800
:1041B00041F20C639A430243CA6020684169A269D4
:1041C00021F44071114341611E492068884202D1A7
:1041D000FEF7A8FB01E0FEF795FB00EBC00101EB49
:1041E0000012606864218000B2FBF0F3B3FBF1F3CE
:1041F0006FF018067343B2FBF0F5B2FBF0F605EB77
:104200008305322303EB0515B5FBF1F5B6FBF1F69B
:1042100005F0F00505EB0615B2FBF0F6B2FBF0F089
:10422000B0FBF1F06FF01802504306EB800003EB97
:104230000010B0FBF1F0216800F00F002844886006
:1042400070BD00000038014038B5816204468285A7
:10425000002013466064222284F84220E56B1B4A4A
:10426000AA62E56B1A4AEA62E56B1A4A2A63E26BB4
:1042700050630A462168E06B091DFEF721F82068AB
:10428000016840680090206948B120680C3050E80F
:10429000001F41F4807140E80012002AF5D1206827
:1042A000143050E8001F41F0010140E80012002ADC
:1042B000F5D12068143050E8001F41F0400140E87B
:1042C0000012002AF5D1002038BD00004D3F000843
:1042D000D33F0008033F00080148FFF78DB80000F6
:1042E000980100200148FFF787B80000E001002096
:1042F000FEE7490050EAC12018BF04204A0D18BF4C
:1043000040F0010040F2FF72B2EB515F08BF40F095
:104310000200012808BF052070470907090E002880
:1043200004DB00F1E02080F80014704700F00F007B
:1043300000F1E02080F8141D704730380A2801D2BF
:1043400001207047002070472DE9F0410D46040020
:1043500026D0002D24D001F001FBF4E924210346EE
:10436000002052194141C4E9002161692944616179
:10437000216A2944216294F91910D4E90272A1FB3F
:1043800005CECE1706FB05E501FB005017EB0C012F
:104390004241C4E90212BDE8F041184601F0E2BA18
:1043A000BDE8F0812DE9F0410F461E461546044652
:1043B0002421DDF81880FCF7C6F84FF0FF30E4E860
:1043C000020784E86001BDE8F08170B50446C06969
:1043D0004568485D33B1042817DD112815D017282A
:1043E00013D005E00F280CD010280AD017280AD0C7
:1043F000A56900200DB12046A847E16989680844F5
:1044000070BD491D02E0093100E0491C685CF4E719
:1044100010B503464AB1062924D016DC062925D258
:10442000DFE801F0241E1E1E1E2006291ADD0F29BA
:1044300007D0102905D0162916D0172903D000203F
:1044400015E0052017E0092015E0A1F10F0009286B
:104450000CD2DFE800F00707050B0B0B0B0905007A
:10446000012008E0042006E0062004E001205C6949
:104470000CB11846A047C0B210BD30B4002902DD0F
:1044800003698B4203DA30BC4FF0FF3070471346AC
:10449000C4680A46214630BCAFF300802DE9F047DE
:1044A0000646C0691446884640689946151A4FF07A
:1044B000FF376D1E0FD418F800101A463046FFF76C
:1044C000A7FF2D1A07D44B46224641463046FFF738
:1044D0007CFF281A02D53846BDE8F087221AF06919
:1044E0004146436A3046BDE8F047184710B50078AA
:1044F000029C20706170100AA070E270180A20718E
:104500006371062010BD02780A700079487002209D
:10451000704770B50D46901E81B21446284600F0D3
:104520000BF8291931F8021C49BA884201D12046FA
:1045300070BD4FF0FF3070BD70B5094DFF221346BE
:1045400005F5807606E000BF10F8014B54402A5D67
:104550005A40335D491E89B2F6D243EA022070BD4B
:10456000F46A000838B50446049800902046FFF726
:1045700019FF0248C4E90704002038BDF46C0008A4
:1045800008781178884203D010B14FF0FF3070479F
:10459000002070470868801E08600020704770B5D2
:1045A0000C46054689B2FFF7C7FF0146000A2855A9
:1045B000601C2954A01C70BD01600020704770B5BC
:1045C00004464868154680304860E0690B466168DB
:1045D00082691846904761680D54401C70BDC269DD
:1045E000126910472DE9FF4F0446C0698DB04FF0A6
:1045F000FF36D0E901201044A2681B9D401D824275
:1046000006DB00222046FFF738FF0390002803DA7C
:10461000304611B0BDE8F08F05B128600020009051
:104620000190D4E901613046D4F80C80FBF769FFB2
:10463000E069D0F8049008EB090518F809B0A878EB
:10464000697815F801AC00EB012087B2CDE90AAB1F
:10465000E06903A9C269404690470C90182104A85C
:10466000FBF771FF0AA804906846CDE905070F988B
:1046700028B12168514502D0BAF1000F76D101AAC4
:104680004FF48031BBF1180F71D2DFE80BF0700CE2
:104690000C32325471F87070707070707076A2AF16
:1046A00070707070D7DA2879EA7800EB0225681EFE
:1046B000B0F5FA6F48D27819401E88427EDAE06978
:1046C000314682690AA890470090690701D001220B
:1046D00000E00022EB1705EB537102EBE1010791BB
:1046E000315400980799401C0990084407950090A0
:1046F000E2E02879EA7800EB0225681E7D28D9D20D
:104700007819401E8842D9DAE069314682690AA8E0
:104710009047690007910090315400980799401C18
:104720000990084407950090E169A26889680844E7
:1047300082427DDBE0E02879E97800EB01200190FE
:10474000B0F57F4F01D008B197E0012008920190A9
:1047500003980090E269A16892681044814267DB87
:1047600041463046039AFBF74DFEC5E0E2E0ABE080
:104770002879E97800EB0120E8E72A79E87802EB6C
:1047800000296A79A9F10100B0F5F66F75D2B9EB8D
:10479000C20F72DC07EB0900401E884279DAE0693B
:1047A000314682690AA89047AD1D0090CDE9079572
:1047B000E169A2688B68011D194400E069E08A4242
:1047C00036DB32184044006810600098001D0090ED
:1047D00092E02879EA7800EB02296A79A9F10100D0
:1047E0007B284AD2B2EB490F47D1D3E7E069314683
:1047F00082690AA890470546401C009021783154F0
:104800000098FF21401C0090315400980922401C60
:104810000090E1698B6800F109011944A36899428D
:1048200050DC304444A1FBF7EDFD0098093000E076
:1048300048E00090401B401E70556DE0ED1C08954F
:1048400086E72879EA7800EB0228A8796A7900EBF4
:10485000022083B2287AEA7900EB02206A7AA0F17A
:10486000010CBCF1790F08D2B8F1010F05DBB8F1EA
:104870007D0F02DCB2EB400F02D0032236E034E0C1
:1048800007EB08021844401E521E8A4201DA884291
:1048900001DB02222AE0E069314682690AA89047DA
:1048A0004FEA4801009031540098401CED1CCDE9BE
:1048B000085000EB48000090E269A168926810443B
:1048C000814219DA072211E0109870B1E06931468F
:1048D00082690AA890476D1CCDE9085003990090A1
:1048E000A1EB0900401E079008E001220AA920461A
:1048F000FFF765FE00900FE0109868B1109B04A9C7
:1049000020461A9A9847002806DA10F1FF0F01D0C6
:104910004242EBE7002009E0009949B1E0690268F2
:1049200052EA0A0206D0026A30469047009070E6CA
:1049300000986EE600206CE6414D425F312E312E2C
:1049400034000000CA1701EB5273DA1023F007039A
:10495000805CC91A01228A40104000D001207047B3
:1049600070B5CB1701EB5374E51024F00706012353
:10497000891B8B40E110415C0AB1194300E0994367
:10498000415570BD00EB410210F81100527802EB66
:10499000002080B27047130A00F8113000EB41008C
:1049A000427070472DE9F041074608680E46150031
:1049B00044680FD02A6A1AB13846904700280AD1B5
:1049C000062C1FD009DC062C0FD2DFE804F00E15F0
:1049D0001515151B0020BDE8F0810F2C12D0102CEE
:1049E00010D0162C14D0172C18D06A6AE2B13146B8
:1049F00038469047044619E02A463146384601F0C9
:104A0000ADFBF7E72A463146384601F07BFFF1E778
:104A10002A463146384600F042FBEBE72A4631464B
:104A2000384601F0C3FEE5E74FF0FF34AB6A1BB137
:104A300022463146384698472046CCE710B5044612
:104A400090F8C600002819D0204601F012FED4F8D4
:104A5000C80000F083F9024694F8A20000EB400081
:104A600004EB8000C2602046D4F8C01000F055F975
:104A700000F07BFF44F8B80F0020A07310BD7CB598
:104A80000446A1F580500B46D5B20D281ED2DFE8B2
:104A900000F007090B0D0F111315171D1D191B0031
:104AA00025707CBD65707CBDA5707CBDA2807CBD81
:104AB000A5717CBDE5717CBD25727CBD65727CBD38
:104AC000A5727CBD22827CBD62827CBD01AA694642
:104AD000184600F0BBFA0028F7D09DF8040004281F
:104AE0000AD00528F1D19DF8000000EB400004EB4E
:104AF000800080F821507CBD9DF8000000EB400054
:104B000004EB800080F820507CBD00002DE9FF4FB1
:104B100081B09B460646DDE90203002441F2090507
:104B20002A465946009401F09AFB38B9DDE90203A0
:104B30006A1C5946009401F092FB40B1F068009065
:104B4000DDE902012B465A4601F09AFBF060002590
:104B50004FF4885A4FEA0409DDE902030AEB051411
:104B60004F4622465946CDF8009001F078FB40B9F7
:104B7000601C82B2DDE902035946009701F06FFB29
:104B800070B105EB450006EB80082346D8F8180005
:104B90000090DDE902015A4601F072FBC8F81800E6
:104BA000B8460097DDE90203A71CBAB2594601F0E6
:104BB00056FB48B9DDE90203E41CA2B25946CDF820
:104BC000008001F04CFB60B105EB450006EB800472
:104BD000BBB2E0690090DDE902015A4601F050FBEA
:104BE000E0616D1CEDB20A2DB6D305B0BDE8F08FC3
:104BF0002DE9F0410446002539E089B38A424BD3C0
:104C000001EB410004EB800084F8A21000F10C08D5
:104C1000207A0128D8F804004FEAE07204D1D4E9E0
:104C20002667801B62EB070250EA02060ED01100D5
:104C300003D50021404261EB02014FF0FF363346BD
:104C40000025361A8D4118D2184617E094F8A800AE
:104C5000401CC0B284F8A800984202D9032141E068
:104C60001AE0204600F01AFB6D1C0146EDB2607A96
:104C7000431C0246AB42C0D2F0E768B1002A00DB19
:104C8000012394F8AA1061B194F9A910994208D0AF
:104C9000A18831B1012605E02046BDE8F04100F0D1
:104CA0004FB9002684F8A9300025C4E92B0504F883
:104CB000A85F00F05AFEE06025776577A57714F8C5
:104CC000A20CA83C30B1002294F9A900002803DD11
:104CD000012102E00122F7E70021002000F046FD5B
:104CE00028B108212046BDE8F04100F013B90127A2
:104CF00084F8AA70D8F800202046D4F8C01000F03C
:104D00000CF82EB1C4F8BC5084F8A070BDE8F08156
:104D10002046BDE8F04101F044BC7CB504460E4697
:104D2000104600F01BF80546304600F017F8024622
:104D3000618A208ACDE90001E1792B4604F1CC009B
:104D400000F015FE7CBD000020B10349884200D967
:104D50000846704701207047A086010020B1034932
:104D6000884200D90846704701207047A08601009C
:104D70000B46024604214FF4405000F00BB908B531
:104D8000009313460A4601464FF4405001F0D6FB0B
:104D900008BD10B5044690F8A21000F07FFA01009B
:104DA000204603D0BDE81040FFF722BFBDE8104009
:104DB00000F0C6B870B5C04300240A4D0DE00B5D8D
:104DC00058400023C60702D085EA500000E04008A2
:104DD0005B1CDBB2082BF5D3641C9442EFD3C043B9
:104DE00070BD00002083B8ED90F8A21049B1427A5E
:104DF000914206D801EB410100EB8100007D0128C2
:104E000000D00020704700008268C16812680968FD
:104E1000D36823F40073D3600A684FF6FE731A4018
:104E20000A600D4B0F225A60026812688A6000F116
:104E30001002CA6001224A6043F610230B600B681F
:104E400043F001030B6081680968CB6843F4007389
:104E5000CB6080F820207047000002402DE9F0412F
:104E600006464FF6FF70002A25D0914223D2054610
:104E7000A1FB050100242346FBF7FCF9012E1CD001
:104E8000022E18D102012846B2FBF0F1B2FBF0F37A
:104E900005FB132210290ED21D4B33F8115003EBE2
:104EA000410100234988491BA1FB024102462046DB
:104EB000FBF7E0F92844BDE8F08147F6FF76B04201
:104EC0000ED20218A2FB006344EB040101FB003088
:104ED00002FB04012A4600233046FBF7CBF9EAE740
:104EE000A0F5FE47FF3FF919A1FB070344EB0402BD
:104EF00002FB073201FB04212A460023FBF7BAF923
:104F0000C0EB47003044B0F5803FD4D32846D2E709
:104F10001C6E00087CB50D4604466946002000F072
:104F2000F3FC84F8A150052084F8A0000020C4F808
:104F3000BC0084F8C40084F8C50084F8C6007CBDB9
:104F40001CB504466946002000F0DEFC042084F80D
:104F5000A000002084F8A200C4F8BC00C4F8AC0093
:104F6000C4F8B00084F8C40084F8C50084F8C60012
:104F70001CBD30B50446002308E004EB03100568AF
:104F8000954202DC4568954203DA5B1C8B42F4DBF8
:104F9000002030BD2DE9F0410E460746150002D035
:104FA000B3EB460F03DA6FF00300BDE8F081002495
:104FB00007E0381980B200F0A1FD25F81400641C48
:104FC000A4B2B442F5D30020EFE710B500230446A5
:104FD000014608221846FFF7EDFE04F10C01BDE87A
:104FE0001040A422FFF7E6BE08B100207047012060
:104FF000704778B1017869B9417803290AD8817876
:10500000032907D8C178012904D80079012801D8DB
:10501000012070470020704720B10349884201D821
:105020000120704700207047A0860100A0F588503D
:10503000962809D2C0F3071100F00F000A2903D205
:10504000052801D80120704700207047A0F588503E
:10505000962807D2C0F3071300F00F000A2B01D2E5
:10506000052801D90020704701B10B7002B1107002
:1050700001207047FDF720FBFEF7ACFDFEF74CFC6E
:10508000FEF71CFCFEF768FDFEF7CEFCFEF71AFDEE
:10509000FEF77EFDFEF792FC00F0A2F8FEE770B589
:1050A000C0B00E468D68D2E9040100282BD02A46F4
:1050B000FFF75FFF040025D0E06818B34FF480715C
:1050C0006846FBF740FAA26812B1FD216846904796
:1050D00032692068FD23517816782D1A01EB0621DC
:1050E000D67892783DF8150006EB022208408A43F4
:1050F00010432DF81500E4686A4601212846A047B0
:10510000002800D1002040B070BD2DE9F0470027F5
:1051100068B161B10B6853B11A680068904209D058
:1051200042B1FF2A06D06FF0FE00BDE8F0876FF0B5
:105130000300FAE70A8958681FFA82F9032806D0A3
:10514000062807D0102809D04FF0FF30EDE78889F6
:1051500086B206E001263746002508E08889012747
:1051600086B20EB100252CE06FF00200DDE709EBFE
:10517000050084B2A4F5805080466FF0010A0C2827
:105180000BD92046FFF752FF38B9A4F500500C2880
:1051900003D9A4F5405003280FD887B1B8F10C0FFC
:1051A0000DD92046FFF742FF48B9A4F50050032867
:1051B00005D9A4F54054032C01D95046B5E76D1C20
:1051C000ADB2B542D3D30020AFE70000004870472E
:1051D000F06D0008704700F09DBD00F049BC000074
:1051E00000F032F8FFF7F9FF01F0D2F803A000F069
:1051F0000DF800BF01F0D2F8FCE70000504C53520C
:105200002072656164790D0A000000000FB40C483B
:1052100010B590F84100202803D0002010BC5DF8A4
:1052200014FB03AB4FF480710648029AFBF7D0F8E9
:10523000044682B203490248FEF700FB2046EDE730
:10524000E00100201803002008B5FFF7C3FF094B59
:105250004FF48072A3F58071A1F124000092FFF752
:1052600081F905480121FFF7BAF9BDE80840FEF7CA
:105270007BBF00003C0700201806002061B10A290E
:105280000AD841F2F00202EB0111884202D0491C17
:10529000814201D1012070470020704760B159B1AF
:1052A000427A8A4208D301EB410300EB8300407D40
:1052B000002802D18A4201D800207047491CC8B298
:1052C000704710B5040018D09021FBF73CF900207E
:1052D00020706070A070A080A071E0712072012128
:1052E0006172A172E160208260824FF47A71C4E938
:1052F000061084F8200084F8210010BD70B5054622
:1053000001F014FA00280ED1002417E004EB440049
:1053100005EB800656F8180FFFF77EFE20B1307AB5
:10532000012803D9072070BD022070BD707A697A08
:10533000884201D9062070BD641CE4B2687AA0429C
:10534000E4D8002070BD70B50C4605000BD0002CD1
:1053500009D000F003FB90352ECD84E82E00BDE887
:10536000704000F0FFBA70BD70B50C46050024D047
:10537000002C22D000F0F2FA95F8A010217095F8D8
:10538000A110617095F8A210A170D5F8BC106160F1
:10539000D5F8A410A160D5F8AC10E160D5F8B01034
:1053A0002161F5E92412C4E90612D5E90212C4E923
:1053B0000812BDE8704000F0D5BA70BD10B5040009
:1053C00010D0E021FBF7BFF82046FFF77AFF00205E
:1053D00004F8A00F6070E06154F8941C2162012170
:1053E0006172A07210BD10B504000FD000F0B6FAC3
:1053F000014694F8A00058B1042809D0052807D028
:105400000024084600F0AEFA204610BD012010BD71
:105410000124F6E77CB504000ED0FFF7E5FC002878
:105420000AD094F8A0000125022806D0012801D056
:10543000032801D184F8C4507CBD6946002000F0E7
:1054400063FA0028F8D120460099FEF77DFF84F822
:10545000C5507CBD70B50D4604001BD0002D19D081
:105460000D48854216D894F8A200002812D000F00A
:1054700075FA014694F8A000022801D0012804D151
:105480000120C4F8C85084F8C600BDE87040084642
:1054900000F068BA70BD0000A086010070B50C462F
:1054A00005000BD0002C09D000F058FA1ECC903526
:1054B00085E81E00BDE8704000F054BA70BD7CB5B0
:1054C00015460E4604000BD056B14DB1FFF78BFFC9
:1054D00040B13046FFF712FF30B184F8A1007CBD27
:1054E00007207CBD01207CBD902231462046FAF782
:1054F000CEFF95E80F009034002584E80F00257456
:105500006574A5746561E56125622576E562F068DC
:10551000FFF724FC206301206076A576A56284F85D
:10552000345084F8355084F836508DF80050307877
:105530008DF8010070788DF80200B0788DF80300C6
:10554000B0798DF8040069460020903C00F06CF8BA
:1055500018B1082084F8A1007CBDB17A2046FFF77D
:1055600047FB94F8A1007CBD1CB5040008D094F85A
:10557000A000022806D0012804D0032802D016E09B
:1055800007201CBD6946002000F0BEF928B10821A3
:105590002046FFF7BFFC08201CBD20460099FEF7FF
:1055A000D3FE204601F065F82046FFF7C9FC002035
:1055B0001CBD70B5002836D090F8A0100025052934
:1055C00031D2DFE801F0300320242E00044600F041
:1055D000CCF906462046FFF707FC30B194F8C4002A
:1055E00018B184F8C450204617E0D4F8B400A1885C
:1055F000301A884217D32046FFF720FA2046BDE82C
:10560000704000F0CEBFBDE8704000F05CBE90F886
:10561000C410002907D080F8C450BDE87040FFF7DF
:10562000B8BB80F8A05070BD70B50C460546FFF7BA
:10563000DBFC78B12046FFF7DCFC58B1064905EBEE
:10564000850001EBC000216840F8221F217901711B
:10565000002070BD012070BD1400002070B50C4604
:105660000546FFF7C1FCE0B12046FFF7C2FCC0B120
:105670000D4905EB850001EBC0008021016100228E
:1056800080F8212080F8202082828261C261216816
:10569000C0F82210217980F8261000F0B7FF002012
:1056A00070BD012070BD000014000020202801D032
:1056B00000207047012070472DE9F0470E46E8B9F9
:1056C000E6B14FF00009C6F8009086F80490264C29
:1056D00000F044F9804694F8210090B1204600F093
:1056E0004BFF306020680068006840F30007D4E991
:1056F00006017F1C88420BD300250AE00120BDE88B
:10570000F08720680068006840F30000401C24E037
:105710000D1A94F8200090B98DB141F2883085427D
:105720000DD8A0680068416A294489B24163A16824
:105730006FF00200096808612046FFF765FB7F1ED5
:105740002F420BD10DB9E069A061204600F05EFF49
:1057500084F8219084F8209001203071404600F0B8
:1057600001F90020CBE700001400002010B508B1BB
:10577000012010BD0848514081F0010290F824003A
:105780000649064B083331F8101053F82000FCF797
:105790007FFF002010BD000014000020DC6A00081C
:1057A0002DE9F0410C460546FFF71EFC60B3234986
:1057B000601E884228D22248B0FBF4F0022800D2B2
:1057C00002204FF6FF7101440A0C4FF4803307D0DA
:1057D0009A4219D8B0FBF2F1022903D2022104E067
:1057E0000122F7E7994200D91946491E8CB21549A2
:1057F000521E05EB850001EBC005601C96B24FF010
:105800000108470803D003E00120BDE8F08101272B
:1058100000F0A4F82A6895F82110126896622A68A8
:105820001268D4622A681268576319B92A68126824
:10583000C2F8148000F096F80020E6E7A086010088
:1058400000A24A04140000202DE9F0410D4640B9A1
:105850003DB12C4C002694F8210020B10220BDE877
:10586000F0810120FBE700F079F80746204600F0C0
:10587000CDFEA06800684662A682C4E9066584F889
:105880002060A1686FF0020009680861216840107B
:105890000968086141F28830854207D8A168A8B23A
:1058A000096848632046FFF7AFFA04E0A1684FF6A5
:1058B000FF7009684863A0680068016A41F001014F
:1058C0000162A0680068016841F001010160206880
:1058D0000068016A41F00101016220680068016806
:1058E00041F08001016020680068016841F0010119
:1058F0000160012084F82100384600F033F80020D0
:10590000ADE70000140000202DE9F0470C4600260A
:1059100010B10120BDE8F087012700200CB1206004
:10592000277180460C4D00F019F8814695F821004A
:1059300018B1284600F020FE0646284600F066FE14
:1059400085F8218085F82080484600F00BF80CB1DE
:10595000266027710020DDE714000020EFF310809F
:1059600072B6704780F310887047FCF797BE2DE938
:10597000F0419846DDE90676040011D00025256047
:105980006560A560E56021701046FFF7DDF9606095
:105990004046FFF7D9F9A0606168884202D1E5600E
:1059A000BDE8F08101D9E760FAE7E660F8E70000BA
:1059B00070B5040023D0E2680AB18A4204D8806836
:1059C000BDE87040FFF7C0B92078FFF747FAD4E987
:1059D00001514B1B0146A3FB0106002464EB0402AA
:1059E00002FB016103FB04114FF6FF722346FAF735
:1059F000CBFC40196141421E71F1000201DA012025
:105A000070BD034B00221B1A8A41F9DA004870BDB1
:105A1000A08601001FB569460748FFF794FC0020E7
:105A2000CDE9000069460448FFF738FD00F0D4FADC
:105A300004B0002010BD00004008002070B5040034
:105A40000CD0FFF78BFF0546902205492046FAF758
:105A50001EFD2846BDE87040FFF784BF70BD000002
:105A60002009002001460148FFF77EBC40080020C5
:105A700000B587B06946144800F070FA18B169465D
:105A8000114800F0EFFA1048E038FFF797FC0E4895
:105A90006946E038FFF702FD002262F307000A4A78
:105AA000137863F30F20537863F317409378927958
:105AB00063F31F6062F30701CDE9040104A900202C
:105AC000FFF7CCFD07B000BD2009002010B5FFF79F
:105AD000EDFD00280CD0FFF748FF06490A68821A3E
